{
  "contractName": "DateTime",
  "abi": [
    {
      "constant": true,
      "inputs": [
        {
          "name": "year",
          "type": "uint16"
        }
      ],
      "name": "isLeapYear",
      "outputs": [
        {
          "name": "",
          "type": "bool"
        }
      ],
      "payable": false,
      "stateMutability": "pure",
      "type": "function"
    },
    {
      "constant": true,
      "inputs": [
        {
          "name": "year",
          "type": "uint256"
        }
      ],
      "name": "leapYearsBefore",
      "outputs": [
        {
          "name": "",
          "type": "uint256"
        }
      ],
      "payable": false,
      "stateMutability": "pure",
      "type": "function"
    },
    {
      "constant": true,
      "inputs": [
        {
          "name": "month",
          "type": "uint8"
        },
        {
          "name": "year",
          "type": "uint16"
        }
      ],
      "name": "getDaysInMonth",
      "outputs": [
        {
          "name": "",
          "type": "uint8"
        }
      ],
      "payable": false,
      "stateMutability": "pure",
      "type": "function"
    },
    {
      "constant": true,
      "inputs": [
        {
          "name": "timestamp",
          "type": "uint256"
        }
      ],
      "name": "getYear",
      "outputs": [
        {
          "name": "",
          "type": "uint16"
        }
      ],
      "payable": false,
      "stateMutability": "pure",
      "type": "function"
    },
    {
      "constant": true,
      "inputs": [
        {
          "name": "timestamp",
          "type": "uint256"
        }
      ],
      "name": "getMonth",
      "outputs": [
        {
          "name": "",
          "type": "uint8"
        }
      ],
      "payable": false,
      "stateMutability": "pure",
      "type": "function"
    },
    {
      "constant": true,
      "inputs": [
        {
          "name": "timestamp",
          "type": "uint256"
        }
      ],
      "name": "getDay",
      "outputs": [
        {
          "name": "",
          "type": "uint8"
        }
      ],
      "payable": false,
      "stateMutability": "pure",
      "type": "function"
    },
    {
      "constant": true,
      "inputs": [
        {
          "name": "timestamp",
          "type": "uint256"
        }
      ],
      "name": "getHour",
      "outputs": [
        {
          "name": "",
          "type": "uint8"
        }
      ],
      "payable": false,
      "stateMutability": "pure",
      "type": "function"
    },
    {
      "constant": true,
      "inputs": [
        {
          "name": "timestamp",
          "type": "uint256"
        }
      ],
      "name": "getMinute",
      "outputs": [
        {
          "name": "",
          "type": "uint8"
        }
      ],
      "payable": false,
      "stateMutability": "pure",
      "type": "function"
    },
    {
      "constant": true,
      "inputs": [
        {
          "name": "timestamp",
          "type": "uint256"
        }
      ],
      "name": "getSecond",
      "outputs": [
        {
          "name": "",
          "type": "uint8"
        }
      ],
      "payable": false,
      "stateMutability": "pure",
      "type": "function"
    },
    {
      "constant": true,
      "inputs": [
        {
          "name": "timestamp",
          "type": "uint256"
        }
      ],
      "name": "getWeekday",
      "outputs": [
        {
          "name": "",
          "type": "uint8"
        }
      ],
      "payable": false,
      "stateMutability": "pure",
      "type": "function"
    },
    {
      "constant": true,
      "inputs": [
        {
          "name": "year",
          "type": "uint16"
        },
        {
          "name": "month",
          "type": "uint8"
        },
        {
          "name": "day",
          "type": "uint8"
        }
      ],
      "name": "toTimestamp",
      "outputs": [
        {
          "name": "timestamp",
          "type": "uint256"
        }
      ],
      "payable": false,
      "stateMutability": "pure",
      "type": "function"
    },
    {
      "constant": true,
      "inputs": [
        {
          "name": "year",
          "type": "uint16"
        },
        {
          "name": "month",
          "type": "uint8"
        },
        {
          "name": "day",
          "type": "uint8"
        },
        {
          "name": "hour",
          "type": "uint8"
        }
      ],
      "name": "toTimestamp",
      "outputs": [
        {
          "name": "timestamp",
          "type": "uint256"
        }
      ],
      "payable": false,
      "stateMutability": "pure",
      "type": "function"
    },
    {
      "constant": true,
      "inputs": [
        {
          "name": "year",
          "type": "uint16"
        },
        {
          "name": "month",
          "type": "uint8"
        },
        {
          "name": "day",
          "type": "uint8"
        },
        {
          "name": "hour",
          "type": "uint8"
        },
        {
          "name": "minute",
          "type": "uint8"
        }
      ],
      "name": "toTimestamp",
      "outputs": [
        {
          "name": "timestamp",
          "type": "uint256"
        }
      ],
      "payable": false,
      "stateMutability": "pure",
      "type": "function"
    },
    {
      "constant": true,
      "inputs": [
        {
          "name": "year",
          "type": "uint16"
        },
        {
          "name": "month",
          "type": "uint8"
        },
        {
          "name": "day",
          "type": "uint8"
        },
        {
          "name": "hour",
          "type": "uint8"
        },
        {
          "name": "minute",
          "type": "uint8"
        },
        {
          "name": "second",
          "type": "uint8"
        }
      ],
      "name": "toTimestamp",
      "outputs": [
        {
          "name": "timestamp",
          "type": "uint256"
        }
      ],
      "payable": false,
      "stateMutability": "pure",
      "type": "function"
    }
  ],
  "bytecode": "0x608060405234801561001057600080fd5b50610e5e806100206000396000f3fe6080604052600436106100d0576000357c0100000000000000000000000000000000000000000000000000000000900463ffffffff1680633e239e1a146100d55780634ac1ad781461012a57806362ba96871461017f57806365c72840146102065780637f7918331461025b5780638aa001fc146102d55780638c8d98a01461032a5780639054bdec1461039757806392d663131461042b578063a324ad2414610482578063a6f0e577146104d7578063b19999371461052e578063b238ad0e1461057d578063fa93f883146105e3575b600080fd5b3480156100e157600080fd5b5061010e600480360360208110156100f857600080fd5b8101908080359060200190929190505050610638565b604051808260ff1660ff16815260200191505060405180910390f35b34801561013657600080fd5b506101636004803603602081101561014d57600080fd5b8101908080359060200190929190505050610665565b604051808260ff1660ff16815260200191505060405180910390f35b34801561018b57600080fd5b506101f0600480360360a08110156101a257600080fd5b81019080803561ffff169060200190929190803560ff169060200190929190803560ff169060200190929190803560ff169060200190929190803560ff16906020019092919050505061068c565b6040518082815260200191505060405180910390f35b34801561021257600080fd5b5061023f6004803603602081101561022957600080fd5b81019080803590602001909291905050506106a8565b604051808260ff1660ff16815260200191505060405180910390f35b34801561026757600080fd5b506102bf6004803603608081101561027e57600080fd5b81019080803561ffff169060200190929190803560ff169060200190929190803560ff169060200190929190803560ff1690602001909291905050506106be565b6040518082815260200191505060405180910390f35b3480156102e157600080fd5b5061030e600480360360208110156102f857600080fd5b81019080803590602001909291905050506106d9565b604051808260ff1660ff16815260200191505060405180910390f35b34801561033657600080fd5b506103816004803603606081101561034d57600080fd5b81019080803561ffff169060200190929190803560ff169060200190929190803560ff1690602001909291905050506106ef565b6040518082815260200191505060405180910390f35b3480156103a357600080fd5b50610415600480360360c08110156103ba57600080fd5b81019080803561ffff169060200190929190803560ff169060200190929190803560ff169060200190929190803560ff169060200190929190803560ff169060200190929190803560ff16906020019092919050505061070a565b6040518082815260200191505060405180910390f35b34801561043757600080fd5b506104646004803603602081101561044e57600080fd5b81019080803590602001909291905050506109b1565b604051808261ffff1661ffff16815260200191505060405180910390f35b34801561048e57600080fd5b506104bb600480360360208110156104a557600080fd5b8101908080359060200190929190505050610a5c565b604051808260ff1660ff16815260200191505060405180910390f35b3480156104e357600080fd5b50610514600480360360208110156104fa57600080fd5b81019080803561ffff169060200190929190505050610a72565b604051808215151515815260200191505060405180910390f35b34801561053a57600080fd5b506105676004803603602081101561055157600080fd5b8101908080359060200190929190505050610af3565b6040518082815260200191505060405180910390f35b34801561058957600080fd5b506105c7600480360360408110156105a057600080fd5b81019080803560ff169060200190929190803561ffff169060200190929190505050610b2c565b604051808260ff1660ff16815260200191505060405180910390f35b3480156105ef57600080fd5b5061061c6004803603602081101561060657600080fd5b8101908080359060200190929190505050610bf8565b604051808260ff1660ff16815260200191505060405180910390f35b60006018603c808481151561064957fe5b0481151561065357fe5b0481151561065d57fe5b069050919050565b600060076004620151808481151561067957fe5b040181151561068457fe5b069050919050565b600061069d8686868686600061070a565b905095945050505050565b60006106b382610c19565b604001519050919050565b60006106cf8585858560008061070a565b9050949350505050565b6000603c828115156106e757fe5b069050919050565b6000610701848484600080600061070a565b90509392505050565b6000806107b290505b8761ffff168161ffff1610156107565761072c81610a72565b1561073f576301e2850082019150610749565b6301e13380820191505b8080600101915050610713565b61075e610dba565b601f816000600c8110151561076f57fe5b602002019060ff16908160ff168152505061078989610a72565b156107b557601d816001600c8110151561079f57fe5b602002019060ff16908160ff16815250506107d8565b601c816001600c811015156107c657fe5b602002019060ff16908160ff16815250505b601f816002600c811015156107e957fe5b602002019060ff16908160ff1681525050601e816003600c8110151561080b57fe5b602002019060ff16908160ff1681525050601f816004600c8110151561082d57fe5b602002019060ff16908160ff1681525050601e816005600c8110151561084f57fe5b602002019060ff16908160ff1681525050601f816006600c8110151561087157fe5b602002019060ff16908160ff1681525050601f816007600c8110151561089357fe5b602002019060ff16908160ff1681525050601e816008600c811015156108b557fe5b602002019060ff16908160ff1681525050601f816009600c811015156108d757fe5b602002019060ff16908160ff1681525050601e81600a600c811015156108f957fe5b602002019060ff16908160ff1681525050601f81600b600c8110151561091b57fe5b602002019060ff16908160ff1681525050600191505b8760ff168261ffff16101561097357806001830361ffff16600c8110151561095557fe5b602002015160ff166201518002830192508180600101925050610931565b6001870360ff166201518002830192508560ff16610e1002830192508460ff16603c02830192508360ff168301925082925050509695505050505050565b600080600090506000806301e13380858115156109ca57fe5b046107b261ffff160191506109e46107b261ffff16610af3565b6109f18361ffff16610af3565b039050806301e285000283019250806107b2830361ffff16036301e1338002830192505b84831115610a5157610a2960018303610a72565b15610a3c576301e2850083039250610a46565b6301e13380830392505b600182039150610a15565b819350505050919050565b6000610a6782610c19565b602001519050919050565b60008060048361ffff16811515610a8557fe5b0661ffff16141515610a9a5760009050610aee565b600060648361ffff16811515610aac57fe5b0661ffff16141515610ac15760019050610aee565b60006101908361ffff16811515610ad457fe5b0661ffff16141515610ae95760009050610aee565b600190505b919050565b600060018203915061019082811515610b0857fe5b04606483811515610b1557fe5b04600484811515610b2257fe5b0403019050919050565b600060018360ff161480610b43575060038360ff16145b80610b51575060058360ff16145b80610b5f575060078360ff16145b80610b6d575060088360ff16145b80610b7b5750600a8360ff16145b80610b895750600c8360ff16145b15610b9757601f9050610bf2565b60048360ff161480610bac575060068360ff16145b80610bba575060098360ff16145b80610bc85750600b8360ff16145b15610bd657601e9050610bf2565b610bdf82610a72565b15610bed57601d9050610bf2565b601c90505b92915050565b6000603c8083811515610c0757fe5b04811515610c1157fe5b069050919050565b610c21610dde565b6000809050600080610c32856109b1565b846000019061ffff16908161ffff1681525050610c546107b261ffff16610af3565b610c65856000015161ffff16610af3565b039150816301e285000283019250816107b285600001510361ffff16036301e1338002830192506000600191505b600c8260ff16111515610ceb57610cae828660000151610b2c565b60ff1662015180029050858482011115610cd95781856020019060ff16908160ff1681525050610ceb565b80840193508180600101925050610c93565b600191505b610d0285602001518660000151610b2c565b60ff168260ff16111515610d4957858462015180011115610d345781856040019060ff16908160ff1681525050610d49565b62015180840193508180600101925050610cf0565b610d5286610638565b856060019060ff16908160ff1681525050610d6c86610bf8565b856080019060ff16908160ff1681525050610d86866106d9565b8560a0019060ff16908160ff1681525050610da086610665565b8560c0019060ff16908160ff168152505050505050919050565b61018060405190810160405280600c90602082028038833980820191505090505090565b60e060405190810160405280600061ffff168152602001600060ff168152602001600060ff168152602001600060ff168152602001600060ff168152602001600060ff168152602001600060ff168152509056fea165627a7a72305820026c29748b05a78ed5f4ac1001d1716e9dea4a1c8c0a94f46a363cdf83cd25d30029",
  "source": "pragma solidity ^0.5.0;\r\n\r\ncontract DateTime {\r\n        /*\r\n         *  Date and Time utilities for ethereum contracts\r\n         *\r\n         */\r\n        struct _DateTime {\r\n                uint16 year;\r\n                uint8 month;\r\n                uint8 day;\r\n                uint8 hour;\r\n                uint8 minute;\r\n                uint8 second;\r\n                uint8 weekday;\r\n        }\r\n\r\n        uint constant DAY_IN_SECONDS = 86400;\r\n        uint constant YEAR_IN_SECONDS = 31536000;\r\n        uint constant LEAP_YEAR_IN_SECONDS = 31622400;\r\n\r\n        uint constant HOUR_IN_SECONDS = 3600;\r\n        uint constant MINUTE_IN_SECONDS = 60;\r\n\r\n        uint16 constant ORIGIN_YEAR = 1970;\r\n\r\n        function isLeapYear(uint16 year) public pure returns (bool) {\r\n                if (year % 4 != 0) {\r\n                        return false;\r\n                }\r\n                if (year % 100 != 0) {\r\n                        return true;\r\n                }\r\n                if (year % 400 != 0) {\r\n                        return false;\r\n                }\r\n                return true;\r\n        }\r\n\r\n        function leapYearsBefore(uint year) public pure returns (uint) {\r\n                year -= 1;\r\n                return year / 4 - year / 100 + year / 400;\r\n        }\r\n\r\n        function getDaysInMonth(uint8 month, uint16 year) public pure returns (uint8) {\r\n                if (month == 1 || month == 3 || month == 5 || month == 7 || month == 8 || month == 10 || month == 12) {\r\n                        return 31;\r\n                }\r\n                else if (month == 4 || month == 6 || month == 9 || month == 11) {\r\n                        return 30;\r\n                }\r\n                else if (isLeapYear(year)) {\r\n                        return 29;\r\n                }\r\n                else {\r\n                        return 28;\r\n                }\r\n        }\r\n\r\n        function parseTimestamp(uint timestamp) internal pure returns (_DateTime memory dt) {\r\n                uint secondsAccountedFor = 0;\r\n                uint buf;\r\n                uint8 i;\r\n\r\n                // Year\r\n                dt.year = getYear(timestamp);\r\n                buf = leapYearsBefore(dt.year) - leapYearsBefore(ORIGIN_YEAR);\r\n\r\n                secondsAccountedFor += LEAP_YEAR_IN_SECONDS * buf;\r\n                secondsAccountedFor += YEAR_IN_SECONDS * (dt.year - ORIGIN_YEAR - buf);\r\n\r\n                // Month\r\n                uint secondsInMonth;\r\n                for (i = 1; i <= 12; i++) {\r\n                        secondsInMonth = DAY_IN_SECONDS * getDaysInMonth(i, dt.year);\r\n                        if (secondsInMonth + secondsAccountedFor > timestamp) {\r\n                                dt.month = i;\r\n                                break;\r\n                        }\r\n                        secondsAccountedFor += secondsInMonth;\r\n                }\r\n\r\n                // Day\r\n                for (i = 1; i <= getDaysInMonth(dt.month, dt.year); i++) {\r\n                        if (DAY_IN_SECONDS + secondsAccountedFor > timestamp) {\r\n                                dt.day = i;\r\n                                break;\r\n                        }\r\n                        secondsAccountedFor += DAY_IN_SECONDS;\r\n                }\r\n\r\n                // Hour\r\n                dt.hour = getHour(timestamp);\r\n\r\n                // Minute\r\n                dt.minute = getMinute(timestamp);\r\n\r\n                // Second\r\n                dt.second = getSecond(timestamp);\r\n\r\n                // Day of week.\r\n                dt.weekday = getWeekday(timestamp);\r\n        }\r\n\r\n        function getYear(uint timestamp) public pure returns (uint16) {\r\n                uint secondsAccountedFor = 0;\r\n                uint16 year;\r\n                uint numLeapYears;\r\n\r\n                // Year\r\n                year = uint16(ORIGIN_YEAR + timestamp / YEAR_IN_SECONDS);\r\n                numLeapYears = leapYearsBefore(year) - leapYearsBefore(ORIGIN_YEAR);\r\n\r\n                secondsAccountedFor += LEAP_YEAR_IN_SECONDS * numLeapYears;\r\n                secondsAccountedFor += YEAR_IN_SECONDS * (year - ORIGIN_YEAR - numLeapYears);\r\n\r\n                while (secondsAccountedFor > timestamp) {\r\n                        if (isLeapYear(uint16(year - 1))) {\r\n                                secondsAccountedFor -= LEAP_YEAR_IN_SECONDS;\r\n                        }\r\n                        else {\r\n                                secondsAccountedFor -= YEAR_IN_SECONDS;\r\n                        }\r\n                        year -= 1;\r\n                }\r\n                return year;\r\n        }\r\n\r\n        function getMonth(uint timestamp) public pure returns (uint8) {\r\n                return parseTimestamp(timestamp).month;\r\n        }\r\n\r\n        function getDay(uint timestamp) public pure returns (uint8) {\r\n                return parseTimestamp(timestamp).day;\r\n        }\r\n\r\n        function getHour(uint timestamp) public pure returns (uint8) {\r\n                return uint8((timestamp / 60 / 60) % 24);\r\n        }\r\n\r\n        function getMinute(uint timestamp) public pure returns (uint8) {\r\n                return uint8((timestamp / 60) % 60);\r\n        }\r\n\r\n        function getSecond(uint timestamp) public pure returns (uint8) {\r\n                return uint8(timestamp % 60);\r\n        }\r\n\r\n        function getWeekday(uint timestamp) public pure returns (uint8) {\r\n                return uint8((timestamp / DAY_IN_SECONDS + 4) % 7);\r\n        }\r\n\r\n        function toTimestamp(uint16 year, uint8 month, uint8 day) public pure returns (uint timestamp) {\r\n                return toTimestamp(year, month, day, 0, 0, 0);\r\n        }\r\n\r\n        function toTimestamp(uint16 year, uint8 month, uint8 day, uint8 hour) public pure returns (uint timestamp) {\r\n                return toTimestamp(year, month, day, hour, 0, 0);\r\n        }\r\n\r\n        function toTimestamp(uint16 year, uint8 month, uint8 day, uint8 hour, uint8 minute) public pure returns (uint timestamp) {\r\n                return toTimestamp(year, month, day, hour, minute, 0);\r\n        }\r\n\r\n        function toTimestamp(uint16 year, uint8 month, uint8 day, uint8 hour, uint8 minute, uint8 second) public pure returns (uint timestamp) {\r\n                uint16 i;\r\n\r\n                // Year\r\n                for (i = ORIGIN_YEAR; i < year; i++) {\r\n                        if (isLeapYear(i)) {\r\n                                timestamp += LEAP_YEAR_IN_SECONDS;\r\n                        }\r\n                        else {\r\n                                timestamp += YEAR_IN_SECONDS;\r\n                        }\r\n                }\r\n\r\n                // Month\r\n                uint8[12] memory monthDayCounts;\r\n                monthDayCounts[0] = 31;\r\n                if (isLeapYear(year)) {\r\n                        monthDayCounts[1] = 29;\r\n                }\r\n                else {\r\n                        monthDayCounts[1] = 28;\r\n                }\r\n                monthDayCounts[2] = 31;\r\n                monthDayCounts[3] = 30;\r\n                monthDayCounts[4] = 31;\r\n                monthDayCounts[5] = 30;\r\n                monthDayCounts[6] = 31;\r\n                monthDayCounts[7] = 31;\r\n                monthDayCounts[8] = 30;\r\n                monthDayCounts[9] = 31;\r\n                monthDayCounts[10] = 30;\r\n                monthDayCounts[11] = 31;\r\n\r\n                for (i = 1; i < month; i++) {\r\n                        timestamp += DAY_IN_SECONDS * monthDayCounts[i - 1];\r\n                }\r\n\r\n                // Day\r\n                timestamp += DAY_IN_SECONDS * (day - 1);\r\n\r\n                // Hour\r\n                timestamp += HOUR_IN_SECONDS * (hour);\r\n\r\n                // Minute\r\n                timestamp += MINUTE_IN_SECONDS * (minute);\r\n\r\n                // Second\r\n                timestamp += second;\r\n\r\n                return timestamp;\r\n        }\r\n}",
  "sourcePath": "C:\\Users\\E9968575\\OneDrive - Eaton\\Innovation\\Experiments\\Blockchain\\BlockchainETN\\ClientApp\\contracts\\DateTime.sol",
  "compiler": {
    "name": "solc",
    "version": "0.5.0+commit.1d4f565a.Emscripten.clang"
  },
  "schemaVersion": "3.0.9",
  "updatedAt": "2019-06-12T12:07:50.447Z",
  "devdoc": {
    "methods": {}
  },
  "userdoc": {
    "methods": {}
  }
}