{
  "contractName": "OrderSystem",
  "abi": [
    {
      "anonymous": false,
      "inputs": [
        {
          "indexed": false,
          "name": "msg",
          "type": "string"
        },
        {
          "indexed": false,
          "name": "value",
          "type": "string"
        }
      ],
      "name": "CreateOrderMsg",
      "type": "event"
    },
    {
      "anonymous": false,
      "inputs": [
        {
          "indexed": false,
          "name": "orderID",
          "type": "string"
        },
        {
          "indexed": false,
          "name": "SubDate",
          "type": "uint256"
        },
        {
          "indexed": false,
          "name": "EstDate",
          "type": "uint256"
        },
        {
          "indexed": false,
          "name": "orderStatus",
          "type": "uint256"
        },
        {
          "indexed": false,
          "name": "orderInfo",
          "type": "string"
        },
        {
          "indexed": false,
          "name": "submitter",
          "type": "string"
        }
      ],
      "name": "ORDER_DETAILS",
      "type": "event"
    },
    {
      "anonymous": false,
      "inputs": [
        {
          "indexed": false,
          "name": "msg",
          "type": "string"
        }
      ],
      "name": "GetOrdersMsg",
      "type": "event"
    },
    {
      "anonymous": false,
      "inputs": [
        {
          "indexed": false,
          "name": "msg",
          "type": "string"
        }
      ],
      "name": "GetAllOrdersMsg",
      "type": "event"
    },
    {
      "anonymous": false,
      "inputs": [
        {
          "indexed": false,
          "name": "msg",
          "type": "string"
        },
        {
          "indexed": false,
          "name": "enu",
          "type": "uint256"
        }
      ],
      "name": "ChangeStatus",
      "type": "event"
    },
    {
      "constant": true,
      "inputs": [
        {
          "name": "a",
          "type": "string"
        },
        {
          "name": "b",
          "type": "string"
        }
      ],
      "name": "compareStrings",
      "outputs": [
        {
          "name": "",
          "type": "bool"
        }
      ],
      "payable": false,
      "stateMutability": "pure",
      "type": "function"
    },
    {
      "constant": false,
      "inputs": [
        {
          "name": "orderid",
          "type": "string"
        },
        {
          "name": "orderinfo",
          "type": "string"
        },
        {
          "name": "submitter",
          "type": "string"
        }
      ],
      "name": "createOrder",
      "outputs": [
        {
          "name": "",
          "type": "string"
        }
      ],
      "payable": false,
      "stateMutability": "nonpayable",
      "type": "function"
    },
    {
      "constant": false,
      "inputs": [
        {
          "name": "orderid",
          "type": "string"
        },
        {
          "name": "newstatus",
          "type": "uint256"
        }
      ],
      "name": "changeStatus",
      "outputs": [
        {
          "name": "",
          "type": "bool"
        }
      ],
      "payable": false,
      "stateMutability": "nonpayable",
      "type": "function"
    },
    {
      "constant": true,
      "inputs": [],
      "name": "getNumberOfOrders",
      "outputs": [
        {
          "name": "",
          "type": "uint256"
        }
      ],
      "payable": false,
      "stateMutability": "view",
      "type": "function"
    },
    {
      "constant": true,
      "inputs": [
        {
          "name": "timeGreaterThan",
          "type": "uint256"
        }
      ],
      "name": "getOrders",
      "outputs": [
        {
          "name": "",
          "type": "string[]"
        },
        {
          "name": "",
          "type": "uint256[]"
        },
        {
          "name": "",
          "type": "uint256[]"
        },
        {
          "name": "",
          "type": "uint256[]"
        },
        {
          "name": "",
          "type": "string[]"
        }
      ],
      "payable": false,
      "stateMutability": "view",
      "type": "function"
    },
    {
      "constant": true,
      "inputs": [],
      "name": "getAllOrders",
      "outputs": [
        {
          "name": "",
          "type": "string[]"
        },
        {
          "name": "",
          "type": "uint256[]"
        },
        {
          "name": "",
          "type": "uint256[]"
        },
        {
          "name": "",
          "type": "uint256[]"
        },
        {
          "name": "",
          "type": "string[]"
        },
        {
          "name": "",
          "type": "string[]"
        }
      ],
      "payable": false,
      "stateMutability": "view",
      "type": "function"
    },
    {
      "constant": true,
      "inputs": [
        {
          "name": "orderid",
          "type": "string"
        }
      ],
      "name": "getOrderInfo",
      "outputs": [
        {
          "name": "",
          "type": "string"
        },
        {
          "name": "",
          "type": "string"
        },
        {
          "name": "",
          "type": "uint256"
        },
        {
          "name": "",
          "type": "uint256"
        },
        {
          "name": "",
          "type": "uint8"
        }
      ],
      "payable": false,
      "stateMutability": "view",
      "type": "function"
    }
  ],
  "bytecode": "0x608060405261000c61007a565b604051809103906000f080158015610028573d6000803e3d6000fd5b506000806101000a81548173ffffffffffffffffffffffffffffffffffffffff021916908373ffffffffffffffffffffffffffffffffffffffff16021790555034801561007457600080fd5b5061008b565b604051610e7e806200248783390190565b6123ec806200009b6000396000f3fe608060405260043610610083576000357c0100000000000000000000000000000000000000000000000000000000900463ffffffff16806305e0141d146100885780630e84751d146100c957806315eb3f30146100f457806362e03f91146101355780637bea0d1c14610172578063bed34bba146101a2578063f3bf64aa146101df575b600080fd5b34801561009457600080fd5b506100af60048036036100aa9190810190611d55565b61021c565b6040516100c0959493929190611f4e565b60405180910390f35b3480156100d557600080fd5b506100de61070b565b6040516100eb9190612243565b60405180910390f35b34801561010057600080fd5b5061011b60048036036101169190810190611bbd565b610718565b60405161012c95949392919061208c565b60405180910390f35b34801561014157600080fd5b5061015c60048036036101579190810190611c6a565b6109fb565b604051610169919061206a565b60405180910390f35b34801561017e57600080fd5b50610187610f15565b60405161019996959493929190611fc4565b60405180910390f35b3480156101ae57600080fd5b506101c960048036036101c49190810190611bfe565b611459565b6040516101d6919061204f565b60405180910390f35b3480156101eb57600080fd5b5061020660048036036102019190810190611d01565b61154c565b604051610213919061204f565b60405180910390f35b606080606080606061022c6119ec565b606060028054905060405190808252806020026020018201604052801561026757816020015b60608152602001906001900390816102525790505b50905060606002805490506040519080825280602002602001820160405280156102a05781602001602082028038833980820191505090505b50905060606002805490506040519080825280602002602001820160405280156102d95781602001602082028038833980820191505090505b50905060606002805490506040519080825280602002602001820160405280156103125781602001602082028038833980820191505090505b509050606060028054905060405190808252806020026020018201604052801561035057816020015b606081526020019060019003908161033b5790505b50905060008090505b6002805490508110156106ec57600160028281548110151561037757fe5b9060005260206000200160405180828054600181600116156101000203166002900480156103dc5780601f106103ba5761010080835404028352918201916103dc565b820191906000526020600020905b8154815290600101906020018083116103c8575b5050915050908152602001604051809103902060c06040519081016040529081600082018054600181600116156101000203166002900480601f0160208091040260200160405190810160405280929190818152602001828054600181600116156101000203166002900480156104945780601f1061046957610100808354040283529160200191610494565b820191906000526020600020905b81548152906001019060200180831161047757829003601f168201915b5050505050815260200160018201548152602001600282015481526020016003820160009054906101000a900460ff1660058111156104cf57fe5b60058111156104da57fe5b8152602001600482018054600181600116156101000203166002900480601f0160208091040260200160405190810160405280929190818152602001828054600181600116156101000203166002900480156105775780601f1061054c57610100808354040283529160200191610577565b820191906000526020600020905b81548152906001019060200180831161055a57829003601f168201915b50505050508152602001600582018054600181600116156101000203166002900480601f0160208091040260200160405190810160405280929190818152602001828054600181600116156101000203166002900480156106195780601f106105ee57610100808354040283529160200191610619565b820191906000526020600020905b8154815290600101906020018083116105fc57829003601f168201915b50505050508152505096508c876020015111156106df578660000151868281518110151561064357fe5b906020019060200201819052508660200151858281518110151561066357fe5b90602001906020020181815250508660400151848281518110151561068457fe5b9060200190602002018181525050866060015160058111156106a257fe5b83828151811015156106b057fe5b9060200190602002018181525050866080015182828151811015156106d157fe5b906020019060200201819052505b8080600101915050610359565b5084848484849a509a509a509a509a5050505050505091939590929450565b6000600280549050905090565b60608060008060006107286119ec565b6001876040518082805190602001908083835b602083101515610760578051825260208201915060208101905060208303925061073b565b6001836020036101000a038019825116818451168082178552505050505050905001915050908152602001604051809103902060c06040519081016040529081600082018054600181600116156101000203166002900480601f0160208091040260200160405190810160405280929190818152602001828054600181600116156101000203166002900480156108385780601f1061080d57610100808354040283529160200191610838565b820191906000526020600020905b81548152906001019060200180831161081b57829003601f168201915b5050505050815260200160018201548152602001600282015481526020016003820160009054906101000a900460ff16600581111561087357fe5b600581111561087e57fe5b8152602001600482018054600181600116156101000203166002900480601f01602080910402602001604051908101604052809291908181526020018280546001816001161561010002031660029004801561091b5780601f106108f05761010080835404028352916020019161091b565b820191906000526020600020905b8154815290600101906020018083116108fe57829003601f168201915b50505050508152602001600582018054600181600116156101000203166002900480601f0160208091040260200160405190810160405280929190818152602001828054600181600116156101000203166002900480156109bd5780601f10610992576101008083540402835291602001916109bd565b820191906000526020600020905b8154815290600101906020018083116109a057829003601f168201915b505050505081525050905080600001518160800151826020015183604001518460600151849450839350955095509550955095505091939590929450565b606060006212750042019050610a0f6119ec565b6001866040518082805190602001908083835b602083101515610a475780518252602082019150602081019050602083039250610a22565b6001836020036101000a038019825116818451168082178552505050505050905001915050908152602001604051809103902060c06040519081016040529081600082018054600181600116156101000203166002900480601f016020809104026020016040519081016040528092919081815260200182805460018160011615610100020316600290048015610b1f5780601f10610af457610100808354040283529160200191610b1f565b820191906000526020600020905b815481529060010190602001808311610b0257829003601f168201915b5050505050815260200160018201548152602001600282015481526020016003820160009054906101000a900460ff166005811115610b5a57fe5b6005811115610b6557fe5b8152602001600482018054600181600116156101000203166002900480601f016020809104026020016040519081016040528092919081815260200182805460018160011615610100020316600290048015610c025780601f10610bd757610100808354040283529160200191610c02565b820191906000526020600020905b815481529060010190602001808311610be557829003601f168201915b50505050508152602001600582018054600181600116156101000203166002900480601f016020809104026020016040519081016040528092919081815260200182805460018160011615610100020316600290048015610ca45780601f10610c7957610100808354040283529160200191610ca4565b820191906000526020600020905b815481529060010190602001808311610c8757829003601f168201915b5050505050815250509050610ccd81600001516020604051908101604052806000815250611459565b15610d12576002869080600181540180825580915050906001820390600052602060002001600090919290919091509080519060200190610d0f929190611a2e565b50505b7f20ec2b25e430e06f7870372c44873b6833b5517af4bca89faf186b706fc9ed8486604051610d41919061220e565b60405180910390a17f20ec2b25e430e06f7870372c44873b6833b5517af4bca89faf186b706fc9ed8484604051610d7891906121d9565b60405180910390a17fae035bb0f3a36206d5dda5dc80aac2db17174b43e1a4652c4f3649a0442a74ae86428460006005811115610db157fe5b8989604051610dc5969594939291906120ed565b60405180910390a160c06040519081016040528087815260200142815260200183815260200160006005811115610df857fe5b8152602001868152602001858152506001876040518082805190602001908083835b602083101515610e3f5780518252602082019150602081019050602083039250610e1a565b6001836020036101000a03801982511681845116808217855250505050505090500191505090815260200160405180910390206000820151816000019080519060200190610e8e929190611aae565b50602082015181600101556040820151816002015560608201518160030160006101000a81548160ff02191690836005811115610ec757fe5b02179055506080820151816004019080519060200190610ee8929190611aae565b5060a0820151816005019080519060200190610f05929190611aae565b5090505085925050509392505050565b606080606080606080610f266119ec565b6060600280549050604051908082528060200260200182016040528015610f6157816020015b6060815260200190600190039081610f4c5790505b5090506060600280549050604051908082528060200260200182016040528015610f9a5781602001602082028038833980820191505090505b5090506060600280549050604051908082528060200260200182016040528015610fd35781602001602082028038833980820191505090505b509050606060028054905060405190808252806020026020018201604052801561100c5781602001602082028038833980820191505090505b509050606060028054905060405190808252806020026020018201604052801561104a57816020015b60608152602001906001900390816110355790505b509050606060028054905060405190808252806020026020018201604052801561108857816020015b60608152602001906001900390816110735790505b50905060008090505b6002805490508110156114375760016002828154811015156110af57fe5b9060005260206000200160405180828054600181600116156101000203166002900480156111145780601f106110f2576101008083540402835291820191611114565b820191906000526020600020905b815481529060010190602001808311611100575b5050915050908152602001604051809103902060c06040519081016040529081600082018054600181600116156101000203166002900480601f0160208091040260200160405190810160405280929190818152602001828054600181600116156101000203166002900480156111cc5780601f106111a1576101008083540402835291602001916111cc565b820191906000526020600020905b8154815290600101906020018083116111af57829003601f168201915b5050505050815260200160018201548152602001600282015481526020016003820160009054906101000a900460ff16600581111561120757fe5b600581111561121257fe5b8152602001600482018054600181600116156101000203166002900480601f0160208091040260200160405190810160405280929190818152602001828054600181600116156101000203166002900480156112af5780601f10611284576101008083540402835291602001916112af565b820191906000526020600020905b81548152906001019060200180831161129257829003601f168201915b50505050508152602001600582018054600181600116156101000203166002900480601f0160208091040260200160405190810160405280929190818152602001828054600181600116156101000203166002900480156113515780601f1061132657610100808354040283529160200191611351565b820191906000526020600020905b81548152906001019060200180831161133457829003601f168201915b50505050508152505097508760000151878281518110151561136f57fe5b906020019060200201819052508760200151868281518110151561138f57fe5b9060200190602002018181525050876040015185828151811015156113b057fe5b9060200190602002018181525050876060015160058111156113ce57fe5b84828151811015156113dc57fe5b9060200190602002018181525050876080015183828151811015156113fd57fe5b906020019060200201819052508760a00151828281518110151561141d57fe5b906020019060200201819052508080600101915050611091565b508585858585859c509c509c509c509c509c5050505050505050909192939495565b6000816040516020018082805190602001908083835b602083101515611494578051825260208201915060208101905060208303925061146f565b6001836020036101000a03801982511681845116808217855250505050505090500191505060405160208183030381529060405280519060200120836040516020018082805190602001908083835b60208310151561150857805182526020820191506020810190506020830392506114e3565b6001836020036101000a0380198251168184511680821785525050505050509050019150506040516020818303038152906040528051906020012014905092915050565b60006115566119ec565b6001846040518082805190602001908083835b60208310151561158e5780518252602082019150602081019050602083039250611569565b6001836020036101000a038019825116818451168082178552505050505050905001915050908152602001604051809103902060c06040519081016040529081600082018054600181600116156101000203166002900480601f0160208091040260200160405190810160405280929190818152602001828054600181600116156101000203166002900480156116665780601f1061163b57610100808354040283529160200191611666565b820191906000526020600020905b81548152906001019060200180831161164957829003601f168201915b5050505050815260200160018201548152602001600282015481526020016003820160009054906101000a900460ff1660058111156116a157fe5b60058111156116ac57fe5b8152602001600482018054600181600116156101000203166002900480601f0160208091040260200160405190810160405280929190818152602001828054600181600116156101000203166002900480156117495780601f1061171e57610100808354040283529160200191611749565b820191906000526020600020905b81548152906001019060200180831161172c57829003601f168201915b50505050508152602001600582018054600181600116156101000203166002900480601f0160208091040260200160405190810160405280929190818152602001828054600181600116156101000203166002900480156117eb5780601f106117c0576101008083540402835291602001916117eb565b820191906000526020600020905b8154815290600101906020018083116117ce57829003601f168201915b505050505081525050905061181481600001516020604051908101604052806000815250611459565b156118235760009150506119e6565b7fae035bb0f3a36206d5dda5dc80aac2db17174b43e1a4652c4f3649a0442a74ae848260200151836040015186600581111561185b57fe5b600581111561186657fe5b85608001518660a0015160405161188296959493929190612163565b60405180910390a160c06040519081016040528085815260200182602001518152602001826040015181526020018460058111156118bc57fe5b60058111156118c757fe5b8152602001826080015181526020018260a001518152506001856040518082805190602001908083835b60208310151561191657805182526020820191506020810190506020830392506118f1565b6001836020036101000a03801982511681845116808217855250505050505090500191505090815260200160405180910390206000820151816000019080519060200190611965929190611aae565b50602082015181600101556040820151816002015560608201518160030160006101000a81548160ff0219169083600581111561199e57fe5b021790555060808201518160040190805190602001906119bf929190611aae565b5060a08201518160050190805190602001906119dc929190611aae565b5090505060019150505b92915050565b60c06040519081016040528060608152602001600081526020016000815260200160006005811115611a1a57fe5b815260200160608152602001606081525090565b828054600181600116156101000203166002900490600052602060002090601f016020900481019282601f10611a6f57805160ff1916838001178555611a9d565b82800160010185558215611a9d579182015b82811115611a9c578251825591602001919060010190611a81565b5b509050611aaa9190611b2e565b5090565b828054600181600116156101000203166002900490600052602060002090601f016020900481019282601f10611aef57805160ff1916838001178555611b1d565b82800160010185558215611b1d579182015b82811115611b1c578251825591602001919060010190611b01565b5b509050611b2a9190611b2e565b5090565b611b5091905b80821115611b4c576000816000905550600101611b34565b5090565b90565b600082601f8301121515611b6657600080fd5b8135611b79611b748261228b565b61225e565b91508082526020830160208301858383011115611b9557600080fd5b611ba083828461235f565b50505092915050565b6000611bb58235612343565b905092915050565b600060208284031215611bcf57600080fd5b600082013567ffffffffffffffff811115611be957600080fd5b611bf584828501611b53565b91505092915050565b60008060408385031215611c1157600080fd5b600083013567ffffffffffffffff811115611c2b57600080fd5b611c3785828601611b53565b925050602083013567ffffffffffffffff811115611c5457600080fd5b611c6085828601611b53565b9150509250929050565b600080600060608486031215611c7f57600080fd5b600084013567ffffffffffffffff811115611c9957600080fd5b611ca586828701611b53565b935050602084013567ffffffffffffffff811115611cc257600080fd5b611cce86828701611b53565b925050604084013567ffffffffffffffff811115611ceb57600080fd5b611cf786828701611b53565b9150509250925092565b60008060408385031215611d1457600080fd5b600083013567ffffffffffffffff811115611d2e57600080fd5b611d3a85828601611b53565b9250506020611d4b85828601611ba9565b9150509250929050565b600060208284031215611d6757600080fd5b6000611d7584828501611ba9565b91505092915050565b6000611d89826122d1565b80845260208401935083602082028501611da2856122b7565b60005b84811015611ddb578383038852611dbd838351611e9b565b9250611dc8826122fd565b9150602088019750600181019050611da5565b508196508694505050505092915050565b6000611df7826122dc565b808452602084019350611e09836122c4565b60005b82811015611e3b57611e1f868351611f3f565b611e288261230a565b9150602086019550600181019050611e0c565b50849250505092915050565b611e5081612317565b82525050565b611e5f8161234d565b82525050565b6000611e70826122f2565b808452611e8481602086016020860161236e565b611e8d816123a1565b602085010191505092915050565b6000611ea6826122e7565b808452611eba81602086016020860161236e565b611ec3816123a1565b602085010191505092915050565b6000600a82527f7375626d69747465723a000000000000000000000000000000000000000000006020830152604082019050919050565b6000601482527f6372656174654f72646572206f7264657269643a0000000000000000000000006020830152604082019050919050565b611f4881612339565b82525050565b600060a0820190508181036000830152611f688188611d7e565b90508181036020830152611f7c8187611dec565b90508181036040830152611f908186611dec565b90508181036060830152611fa48185611dec565b90508181036080830152611fb88184611d7e565b90509695505050505050565b600060c0820190508181036000830152611fde8189611d7e565b90508181036020830152611ff28188611dec565b905081810360408301526120068187611dec565b9050818103606083015261201a8186611dec565b9050818103608083015261202e8185611d7e565b905081810360a08301526120428184611d7e565b9050979650505050505050565b60006020820190506120646000830184611e47565b92915050565b600060208201905081810360008301526120848184611e65565b905092915050565b600060a08201905081810360008301526120a68188611e65565b905081810360208301526120ba8187611e65565b90506120c96040830186611f3f565b6120d66060830185611f3f565b6120e36080830184611e56565b9695505050505050565b600060c08201905081810360008301526121078189611e65565b90506121166020830188611f3f565b6121236040830187611f3f565b6121306060830186611f3f565b81810360808301526121428185611e65565b905081810360a08301526121568184611e65565b9050979650505050505050565b600060c082019050818103600083015261217d8189611e65565b905061218c6020830188611f3f565b6121996040830187611f3f565b6121a66060830186611f3f565b81810360808301526121b88185611e9b565b905081810360a08301526121cc8184611e9b565b9050979650505050505050565b600060408201905081810360008301526121f281611ed1565b905081810360208301526122068184611e65565b905092915050565b6000604082019050818103600083015261222781611f08565b9050818103602083015261223b8184611e65565b905092915050565b60006020820190506122586000830184611f3f565b92915050565b6000604051905081810181811067ffffffffffffffff8211171561228157600080fd5b8060405250919050565b600067ffffffffffffffff8211156122a257600080fd5b601f19601f8301169050602081019050919050565b6000602082019050919050565b6000602082019050919050565b600081519050919050565b600081519050919050565b600081519050919050565b600081519050919050565b6000602082019050919050565b6000602082019050919050565b60008115159050919050565b600060068210151561233157fe5b819050919050565b6000819050919050565b6000819050919050565b600061235882612323565b9050919050565b82818337600083830152505050565b60005b8381101561238c578082015181840152602081019050612371565b8381111561239b576000848401525b50505050565b6000601f19601f830116905091905056fea265627a7a72305820f974b706a2f02818dfddad7cb2e5fe44be86dd5de93692d2ecdd9e3b1bd23b2e6c6578706572696d656e74616cf50037608060405234801561001057600080fd5b50610e5e806100206000396000f3fe6080604052600436106100d0576000357c0100000000000000000000000000000000000000000000000000000000900463ffffffff1680633e239e1a146100d55780634ac1ad781461012a57806362ba96871461017f57806365c72840146102065780637f7918331461025b5780638aa001fc146102d55780638c8d98a01461032a5780639054bdec1461039757806392d663131461042b578063a324ad2414610482578063a6f0e577146104d7578063b19999371461052e578063b238ad0e1461057d578063fa93f883146105e3575b600080fd5b3480156100e157600080fd5b5061010e600480360360208110156100f857600080fd5b8101908080359060200190929190505050610638565b604051808260ff1660ff16815260200191505060405180910390f35b34801561013657600080fd5b506101636004803603602081101561014d57600080fd5b8101908080359060200190929190505050610665565b604051808260ff1660ff16815260200191505060405180910390f35b34801561018b57600080fd5b506101f0600480360360a08110156101a257600080fd5b81019080803561ffff169060200190929190803560ff169060200190929190803560ff169060200190929190803560ff169060200190929190803560ff16906020019092919050505061068c565b6040518082815260200191505060405180910390f35b34801561021257600080fd5b5061023f6004803603602081101561022957600080fd5b81019080803590602001909291905050506106a8565b604051808260ff1660ff16815260200191505060405180910390f35b34801561026757600080fd5b506102bf6004803603608081101561027e57600080fd5b81019080803561ffff169060200190929190803560ff169060200190929190803560ff169060200190929190803560ff1690602001909291905050506106be565b6040518082815260200191505060405180910390f35b3480156102e157600080fd5b5061030e600480360360208110156102f857600080fd5b81019080803590602001909291905050506106d9565b604051808260ff1660ff16815260200191505060405180910390f35b34801561033657600080fd5b506103816004803603606081101561034d57600080fd5b81019080803561ffff169060200190929190803560ff169060200190929190803560ff1690602001909291905050506106ef565b6040518082815260200191505060405180910390f35b3480156103a357600080fd5b50610415600480360360c08110156103ba57600080fd5b81019080803561ffff169060200190929190803560ff169060200190929190803560ff169060200190929190803560ff169060200190929190803560ff169060200190929190803560ff16906020019092919050505061070a565b6040518082815260200191505060405180910390f35b34801561043757600080fd5b506104646004803603602081101561044e57600080fd5b81019080803590602001909291905050506109b1565b604051808261ffff1661ffff16815260200191505060405180910390f35b34801561048e57600080fd5b506104bb600480360360208110156104a557600080fd5b8101908080359060200190929190505050610a5c565b604051808260ff1660ff16815260200191505060405180910390f35b3480156104e357600080fd5b50610514600480360360208110156104fa57600080fd5b81019080803561ffff169060200190929190505050610a72565b604051808215151515815260200191505060405180910390f35b34801561053a57600080fd5b506105676004803603602081101561055157600080fd5b8101908080359060200190929190505050610af3565b6040518082815260200191505060405180910390f35b34801561058957600080fd5b506105c7600480360360408110156105a057600080fd5b81019080803560ff169060200190929190803561ffff169060200190929190505050610b2c565b604051808260ff1660ff16815260200191505060405180910390f35b3480156105ef57600080fd5b5061061c6004803603602081101561060657600080fd5b8101908080359060200190929190505050610bf8565b604051808260ff1660ff16815260200191505060405180910390f35b60006018603c808481151561064957fe5b0481151561065357fe5b0481151561065d57fe5b069050919050565b600060076004620151808481151561067957fe5b040181151561068457fe5b069050919050565b600061069d8686868686600061070a565b905095945050505050565b60006106b382610c19565b604001519050919050565b60006106cf8585858560008061070a565b9050949350505050565b6000603c828115156106e757fe5b069050919050565b6000610701848484600080600061070a565b90509392505050565b6000806107b290505b8761ffff168161ffff1610156107565761072c81610a72565b1561073f576301e2850082019150610749565b6301e13380820191505b8080600101915050610713565b61075e610dba565b601f816000600c8110151561076f57fe5b602002019060ff16908160ff168152505061078989610a72565b156107b557601d816001600c8110151561079f57fe5b602002019060ff16908160ff16815250506107d8565b601c816001600c811015156107c657fe5b602002019060ff16908160ff16815250505b601f816002600c811015156107e957fe5b602002019060ff16908160ff1681525050601e816003600c8110151561080b57fe5b602002019060ff16908160ff1681525050601f816004600c8110151561082d57fe5b602002019060ff16908160ff1681525050601e816005600c8110151561084f57fe5b602002019060ff16908160ff1681525050601f816006600c8110151561087157fe5b602002019060ff16908160ff1681525050601f816007600c8110151561089357fe5b602002019060ff16908160ff1681525050601e816008600c811015156108b557fe5b602002019060ff16908160ff1681525050601f816009600c811015156108d757fe5b602002019060ff16908160ff1681525050601e81600a600c811015156108f957fe5b602002019060ff16908160ff1681525050601f81600b600c8110151561091b57fe5b602002019060ff16908160ff1681525050600191505b8760ff168261ffff16101561097357806001830361ffff16600c8110151561095557fe5b602002015160ff166201518002830192508180600101925050610931565b6001870360ff166201518002830192508560ff16610e1002830192508460ff16603c02830192508360ff168301925082925050509695505050505050565b600080600090506000806301e13380858115156109ca57fe5b046107b261ffff160191506109e46107b261ffff16610af3565b6109f18361ffff16610af3565b039050806301e285000283019250806107b2830361ffff16036301e1338002830192505b84831115610a5157610a2960018303610a72565b15610a3c576301e2850083039250610a46565b6301e13380830392505b600182039150610a15565b819350505050919050565b6000610a6782610c19565b602001519050919050565b60008060048361ffff16811515610a8557fe5b0661ffff16141515610a9a5760009050610aee565b600060648361ffff16811515610aac57fe5b0661ffff16141515610ac15760019050610aee565b60006101908361ffff16811515610ad457fe5b0661ffff16141515610ae95760009050610aee565b600190505b919050565b600060018203915061019082811515610b0857fe5b04606483811515610b1557fe5b04600484811515610b2257fe5b0403019050919050565b600060018360ff161480610b43575060038360ff16145b80610b51575060058360ff16145b80610b5f575060078360ff16145b80610b6d575060088360ff16145b80610b7b5750600a8360ff16145b80610b895750600c8360ff16145b15610b9757601f9050610bf2565b60048360ff161480610bac575060068360ff16145b80610bba575060098360ff16145b80610bc85750600b8360ff16145b15610bd657601e9050610bf2565b610bdf82610a72565b15610bed57601d9050610bf2565b601c90505b92915050565b6000603c8083811515610c0757fe5b04811515610c1157fe5b069050919050565b610c21610dde565b6000809050600080610c32856109b1565b846000019061ffff16908161ffff1681525050610c546107b261ffff16610af3565b610c65856000015161ffff16610af3565b039150816301e285000283019250816107b285600001510361ffff16036301e1338002830192506000600191505b600c8260ff16111515610ceb57610cae828660000151610b2c565b60ff1662015180029050858482011115610cd95781856020019060ff16908160ff1681525050610ceb565b80840193508180600101925050610c93565b600191505b610d0285602001518660000151610b2c565b60ff168260ff16111515610d4957858462015180011115610d345781856040019060ff16908160ff1681525050610d49565b62015180840193508180600101925050610cf0565b610d5286610638565b856060019060ff16908160ff1681525050610d6c86610bf8565b856080019060ff16908160ff1681525050610d86866106d9565b8560a0019060ff16908160ff1681525050610da086610665565b8560c0019060ff16908160ff168152505050505050919050565b61018060405190810160405280600c90602082028038833980820191505090505090565b60e060405190810160405280600061ffff168152602001600060ff168152602001600060ff168152602001600060ff168152602001600060ff168152602001600060ff168152602001600060ff168152509056fea165627a7a72305820026c29748b05a78ed5f4ac1001d1716e9dea4a1c8c0a94f46a363cdf83cd25d30029",
  "source": "pragma solidity ^0.5.0;\r\npragma experimental ABIEncoderV2;\r\n\r\n\r\nimport \"./DateTime.sol\";\r\n\r\n\r\ncontract OrderSystem {\r\n\r\n    DateTime dateTime = new DateTime();\r\n\r\n    enum OrderStatusEnum { OrderReceived , BeingBuilt, PreparedForShipping, InTransit, ShippingComplete,ServiceRequested }\r\n\r\n    struct Order {\r\n        string OrderID;\r\n        uint SubmissionDate;\r\n        uint EstimatedReceptionDate;\r\n        OrderStatusEnum OrderStatus;\r\n        string OrderInfo;\r\n        string submitter;\r\n    }\r\n\r\n    mapping (string => Order) Orders;\r\n    string[] OrderIds;\r\n\r\n    event CreateOrderMsg(string msg, string value);\r\n    event ORDER_DETAILS(string orderID, uint SubDate,uint EstDate, uint orderStatus, string orderInfo, string submitter );\r\n    event GetOrdersMsg(string msg);\r\n    event GetAllOrdersMsg(string msg);\r\n    event ChangeStatus(string msg, uint enu);\r\n\r\n    function compareStrings (string memory a, string memory b) public pure returns (bool) {\r\n       return keccak256(abi.encodePacked(a)) == keccak256(abi.encodePacked(b));\r\n    }\r\n\r\n    // function uint2str(uint _i) internal pure returns (string memory _uintAsString) {\r\n    //     if (_i == 0) {\r\n    //         return \"0\";\r\n    //     }\r\n    //     uint j = _i;\r\n    //     uint len;\r\n    //     while (j != 0) {\r\n    //         len++;\r\n    //         j /= 10;\r\n    //     }\r\n    //     bytes memory bstr = new bytes(len);\r\n    //     uint k = len - 1;\r\n    //     while (_i != 0) {\r\n    //         bstr[k--] = byte(uint8(48 + _i % 10));\r\n    //         _i /= 10;\r\n    //     }\r\n    //     return string(bstr);\r\n    // }\r\n\r\n    function createOrder(string memory orderid, string memory orderinfo, string memory submitter) public returns (string memory) {\r\n        uint twoWeeksFromNow = now + (86400 * 14);\r\n\r\n        Order memory existCheck = Orders[orderid];\r\n        if(compareStrings(existCheck.OrderID, \"\"))\r\n            OrderIds.push(orderid);\r\n\r\n        emit CreateOrderMsg(\"createOrder orderid:\", orderid);\r\n        emit CreateOrderMsg(\"submitter:\", submitter);\r\n        emit ORDER_DETAILS(orderid, now, twoWeeksFromNow, uint(OrderStatusEnum.OrderReceived), orderinfo, submitter); \r\n\r\n        Orders[orderid] = Order(orderid, now, twoWeeksFromNow, OrderStatusEnum.OrderReceived, orderinfo, submitter);\r\n\r\n        return orderid;\r\n    }\r\n\r\n    function changeStatus(string memory orderid, uint newstatus) public returns (bool) {\r\n\r\n        Order memory existingOrder = Orders[orderid];\r\n        if(compareStrings(existingOrder.OrderID, \"\"))\r\n            return false;\r\n\r\n      //  emit ChangeStatus(orderid, newstatus);\r\n        emit ORDER_DETAILS(orderid, existingOrder.SubmissionDate, existingOrder.EstimatedReceptionDate, uint(OrderStatusEnum(newstatus)), existingOrder.OrderInfo, existingOrder.submitter);\r\n\r\n        Orders[orderid] = Order(orderid, existingOrder.SubmissionDate, existingOrder.EstimatedReceptionDate, OrderStatusEnum(newstatus), existingOrder.OrderInfo, existingOrder.submitter);\r\n\r\n        return true;\r\n    }\r\n\r\n    function getNumberOfOrders() public view returns (uint){\r\n        return OrderIds.length;\r\n    }\r\n\r\n    function getOrders(uint timeGreaterThan) public view returns (string[] memory,uint[] memory,uint[] memory, uint[] memory,string[] memory){\r\n        Order memory ord;\r\n        string[] memory orderids = new string[](OrderIds.length);\r\n        uint[] memory submissiondates = new uint[](OrderIds.length);\r\n        uint[] memory estimateddates = new uint[](OrderIds.length);\r\n        uint[] memory statuses = new uint[](OrderIds.length);\r\n        string[] memory orderinfos = new string[](OrderIds.length);\r\n\r\n        //emit GetOrdersMsg(\"getOrders\");\r\n\r\n        for(uint i = 0;i < OrderIds.length; i++)\r\n        {\r\n\r\n            ord = Orders[OrderIds[i]];\r\n            if(ord.SubmissionDate > timeGreaterThan){\r\n                orderids[i] = ord.OrderID;\r\n                submissiondates[i] = ord.SubmissionDate;\r\n                estimateddates[i] = ord.EstimatedReceptionDate;\r\n                statuses[i] = uint(ord.OrderStatus);\r\n                orderinfos[i] = ord.OrderInfo;\r\n            }\r\n        }\r\n\r\n\r\n        return (orderids,submissiondates,estimateddates,statuses,orderinfos);\r\n    }\r\n\r\n    function getAllOrders() public view returns (string[] memory,uint[] memory,uint[] memory, uint[] memory,string[] memory, string[] memory){\r\n\r\n        //emit GetAllOrdersMsg(\"getAllOrders\");\r\n\r\n        Order memory ord;\r\n        string[] memory orderids = new string[](OrderIds.length);\r\n        uint[] memory submissiondates = new uint[](OrderIds.length);\r\n        uint[] memory estimateddates = new uint[](OrderIds.length);\r\n        uint[] memory statuses = new uint[](OrderIds.length);\r\n        string[] memory orderinfos = new string[](OrderIds.length);\r\n        string[] memory submitters = new string[](OrderIds.length);\r\n\r\n        for(uint i = 0;i < OrderIds.length; i++)\r\n        {\r\n            ord = Orders[OrderIds[i]];\r\n            orderids[i] = ord.OrderID;\r\n            submissiondates[i] = ord.SubmissionDate;\r\n            estimateddates[i] = ord.EstimatedReceptionDate;\r\n            statuses[i] = uint(ord.OrderStatus);\r\n            orderinfos[i] = ord.OrderInfo;\r\n            submitters[i] = ord.submitter;\r\n        }\r\n        return (orderids,submissiondates,estimateddates,statuses,orderinfos, submitters);\r\n    }\r\n\r\n    function getOrderInfo(string memory orderid) public view returns (string memory, string memory, uint, uint, OrderStatusEnum){\r\n\r\n        Order memory theOrd = Orders[orderid];\r\n\r\n        return (theOrd.OrderID, theOrd.OrderInfo, theOrd.SubmissionDate, theOrd.EstimatedReceptionDate, theOrd.OrderStatus);\r\n\r\n    }\r\n}",
  "sourcePath": "C:/Users/E9968575/OneDrive - Eaton/Innovation/Experiments/Blockchain/BlockchainETN/ClientApp/contracts/OrderSystem.sol",
  "compiler": {
    "name": "solc",
    "version": "0.5.0+commit.1d4f565a.Emscripten.clang"
  },
  "schemaVersion": "3.0.9",
  "updatedAt": "2019-06-12T12:07:50.350Z",
  "devdoc": {
    "methods": {}
  },
  "userdoc": {
    "methods": {}
  }
}